:0200000480007A
:10000000370180E01301C1FFEF0000099308D0051C
:08001000730000006F00000006
:1000180083250500372600A02320B6008325450048
:100028002322B600832585002324B6008325C50036
:100038002326B600832505012328B600032545019C
:10004800B7C5ADDE232AA600375534129385F5EEE1
:1000580013058567232CB600232EA60067800000B1
:10006800B7C5650037960400930610009385A59AD6
:100078001306063E2320B5002322C5002324D500FD
:100088002326D5002328C500232A05006780000001
:10009800130101FE232E11001305410097000000F3
:1000A800E78040FC1305410097000000E78080F6D8
:1000B800130500009308D005130505007300000020
:0400C800731000C0F1
:040000058000000077
:00000001FF
