:0200000480007A
:10000000370180E013010100EF0040099308D0059B
:0800100013050000730000005D
:10001800B71600A083A5060003A6460083A686009F
:100028006394C50237C7FECA1307E7AB638EE600C1
:100038009386150013071000138605006366D70022
:100048009305703E13068037B386C50237470F0005
:100058003386C50013070724B335B7003787379EA3
:100068001307979B3306E602375734129386A60286
:1000780013078767B3D5B6003307E6003307B70021
:100088002320B5002322C500232405002326E500EC
:1000980067800000130101FE232E11001305C10023
:1000A80097000000E78000F7130500008325C100D2
:1000B800372600A02320B600832501012322B6009D
:1000C800832541012324B600832581012326B60018
:1000D800B7C5ADDE9385F5EE2328B6009308D005A5
:0C00E8001305050073000000731000C039
:040000058000000077
:00000001FF
