:0200000480007A
:10000000370180E013010100EF0080079308D0055D
:0800100013050000730000005D
:10001800371600A08325060003264600B366B600FF
:10002800639606001306801C9305B007B306B60254
:1000380037470F003386C50013070724B335B700C9
:100048003787379E1307979B3306E60237573412D4
:100058009386A60213078767B3D5B6003307E60071
:100068003307B7002320B5002322C5002324050049
:100078002326E50067800000130101FE232E1100EE
:100088001305C10097000000E780C0F813050000C1
:100098008325C100372600A02320B600832501014F
:1000A8002322B600832541012324B600832581013C
:1000B8002326B600B7C5ADDE9385F5EE2328B60036
:1000C8009308D0051305050073000000731000C0E5
:040000058000000077
:00000001FF
